{
  "_format": "hh-sol-artifact-1",
  "contractName": "addRPS",
  "sourceName": "contracts/addRPS.sol",
  "abi": [
    {
      "anonymous": false,
      "inputs": [
        {
          "indexed": false,
          "internalType": "bool",
          "name": "success",
          "type": "bool"
        },
        {
          "indexed": false,
          "internalType": "bytes",
          "name": "data",
          "type": "bytes"
        }
      ],
      "name": "Response",
      "type": "event"
    },
    {
      "inputs": [
        {
          "internalType": "address",
          "name": "_contract",
          "type": "address"
        }
      ],
      "name": "increaseStake",
      "outputs": [],
      "stateMutability": "payable",
      "type": "function"
    }
  ],
  "bytecode": "0x608060405234801561001057600080fd5b50610369806100206000396000f3fe60806040526004361061001e5760003560e01c806343b0de9a14610023575b600080fd5b61003d600480360381019061003891906101d8565b61003f565b005b6000808273ffffffffffffffffffffffffffffffffffffffff1634620186a0906040516024016040516020818303038152906040527fd9e257ef000000000000000000000000000000000000000000000000000000007bffffffffffffffffffffffffffffffffffffffffffffffffffffffff19166020820180517bffffffffffffffffffffffffffffffffffffffffffffffffffffffff83818316178352505050506040516100ef9190610276565b600060405180830381858888f193505050503d806000811461012d576040519150601f19603f3d011682016040523d82523d6000602084013e610132565b606091505b50915091507f13848c3e38f8886f3f5d2ad9dff80d8092c2bbb8efd5b887a99c2c6cfc09ac2a8282604051610168929190610303565b60405180910390a1505050565b600080fd5b600073ffffffffffffffffffffffffffffffffffffffff82169050919050565b60006101a58261017a565b9050919050565b6101b58161019a565b81146101c057600080fd5b50565b6000813590506101d2816101ac565b92915050565b6000602082840312156101ee576101ed610175565b5b60006101fc848285016101c3565b91505092915050565b600081519050919050565b600081905092915050565b60005b8381101561023957808201518184015260208101905061021e565b60008484015250505050565b600061025082610205565b61025a8185610210565b935061026a81856020860161021b565b80840191505092915050565b60006102828284610245565b915081905092915050565b60008115159050919050565b6102a28161028d565b82525050565b600082825260208201905092915050565b6000601f19601f8301169050919050565b60006102d582610205565b6102df81856102a8565b93506102ef81856020860161021b565b6102f8816102b9565b840191505092915050565b60006040820190506103186000830185610299565b818103602083015261032a81846102ca565b9050939250505056fea264697066735822122002590babf2349d6d68b89a779b82ca1658cccec31f150ec93e75a35786b580e964736f6c63430008110033",
  "linkReferences": {},
  "deployedLinkReferences": {}
}