{
  "_format": "hh-sol-artifact-1",
  "contractName": "addRPS",
  "sourceName": "contracts/addRPS.sol",
  "abi": [
    {
      "inputs": [
        {
          "internalType": "address",
          "name": "_contract",
          "type": "address"
        }
      ],
      "name": "increaseStake",
      "outputs": [],
      "stateMutability": "payable",
      "type": "function"
    }
  ],
  "bytecode": "0x608060405234801561001057600080fd5b50610281806100206000396000f3fe60806040526004361061001e5760003560e01c806343b0de9a14610023575b600080fd5b61003d60048036038101906100389190610196565b61003f565b005b6000808273ffffffffffffffffffffffffffffffffffffffff166040516024016040516020818303038152906040527fd9e257ef000000000000000000000000000000000000000000000000000000007bffffffffffffffffffffffffffffffffffffffffffffffffffffffff19166020820180517bffffffffffffffffffffffffffffffffffffffffffffffffffffffff83818316178352505050506040516100e99190610234565b600060405180830381855af49150503d8060008114610124576040519150601f19603f3d011682016040523d82523d6000602084013e610129565b606091505b5091509150505050565b600080fd5b600073ffffffffffffffffffffffffffffffffffffffff82169050919050565b600061016382610138565b9050919050565b61017381610158565b811461017e57600080fd5b50565b6000813590506101908161016a565b92915050565b6000602082840312156101ac576101ab610133565b5b60006101ba84828501610181565b91505092915050565b600081519050919050565b600081905092915050565b60005b838110156101f75780820151818401526020810190506101dc565b60008484015250505050565b600061020e826101c3565b61021881856101ce565b93506102288185602086016101d9565b80840191505092915050565b60006102408284610203565b91508190509291505056fea2646970667358221220db2501ba9b68e12acac59cbcc3c35d023892acec763b872fe2594ad1f059e09964736f6c63430008110033",
  "linkReferences": {},
  "deployedLinkReferences": {}
}